{
  "contractName": "BuyCars",
  "abi": [
    {
      "inputs": [
        {
          "internalType": "address",
          "name": "_bonusTokenAddress",
          "type": "address"
        }
      ],
      "stateMutability": "nonpayable",
      "type": "constructor"
    },
    {
      "anonymous": false,
      "inputs": [
        {
          "indexed": false,
          "internalType": "uint256",
          "name": "_tokens",
          "type": "uint256"
        }
      ],
      "name": "createOrderEvent",
      "type": "event"
    },
    {
      "inputs": [],
      "name": "CarID",
      "outputs": [
        {
          "internalType": "uint256",
          "name": "",
          "type": "uint256"
        }
      ],
      "stateMutability": "view",
      "type": "function",
      "constant": true
    },
    {
      "inputs": [
        {
          "internalType": "uint256",
          "name": "",
          "type": "uint256"
        }
      ],
      "name": "Cars",
      "outputs": [
        {
          "internalType": "uint256",
          "name": "price",
          "type": "uint256"
        },
        {
          "internalType": "string",
          "name": "brand",
          "type": "string"
        },
        {
          "internalType": "string",
          "name": "model",
          "type": "string"
        }
      ],
      "stateMutability": "view",
      "type": "function",
      "constant": true
    },
    {
      "inputs": [],
      "name": "OrderID",
      "outputs": [
        {
          "internalType": "uint256",
          "name": "",
          "type": "uint256"
        }
      ],
      "stateMutability": "view",
      "type": "function",
      "constant": true
    },
    {
      "inputs": [
        {
          "internalType": "uint256",
          "name": "",
          "type": "uint256"
        }
      ],
      "name": "Orders",
      "outputs": [
        {
          "internalType": "uint256",
          "name": "userID",
          "type": "uint256"
        },
        {
          "internalType": "uint256",
          "name": "carID",
          "type": "uint256"
        },
        {
          "internalType": "uint256",
          "name": "date",
          "type": "uint256"
        },
        {
          "internalType": "bool",
          "name": "active",
          "type": "bool"
        },
        {
          "internalType": "uint256",
          "name": "tokens",
          "type": "uint256"
        }
      ],
      "stateMutability": "view",
      "type": "function",
      "constant": true
    },
    {
      "inputs": [],
      "name": "ServiceOrderID",
      "outputs": [
        {
          "internalType": "uint256",
          "name": "",
          "type": "uint256"
        }
      ],
      "stateMutability": "view",
      "type": "function",
      "constant": true
    },
    {
      "inputs": [
        {
          "internalType": "uint256",
          "name": "",
          "type": "uint256"
        }
      ],
      "name": "ServiceOrders",
      "outputs": [
        {
          "internalType": "address",
          "name": "userAddress",
          "type": "address"
        },
        {
          "internalType": "uint256",
          "name": "price",
          "type": "uint256"
        },
        {
          "internalType": "uint256",
          "name": "date",
          "type": "uint256"
        }
      ],
      "stateMutability": "view",
      "type": "function",
      "constant": true
    },
    {
      "inputs": [],
      "name": "UserID",
      "outputs": [
        {
          "internalType": "uint256",
          "name": "",
          "type": "uint256"
        }
      ],
      "stateMutability": "view",
      "type": "function",
      "constant": true
    },
    {
      "inputs": [
        {
          "internalType": "uint256",
          "name": "",
          "type": "uint256"
        }
      ],
      "name": "UserIDs",
      "outputs": [
        {
          "internalType": "address",
          "name": "",
          "type": "address"
        }
      ],
      "stateMutability": "view",
      "type": "function",
      "constant": true
    },
    {
      "inputs": [
        {
          "internalType": "address",
          "name": "",
          "type": "address"
        }
      ],
      "name": "Users",
      "outputs": [
        {
          "internalType": "string",
          "name": "name",
          "type": "string"
        },
        {
          "internalType": "uint256",
          "name": "tokens",
          "type": "uint256"
        }
      ],
      "stateMutability": "view",
      "type": "function",
      "constant": true
    },
    {
      "inputs": [],
      "name": "accounter",
      "outputs": [
        {
          "internalType": "address",
          "name": "",
          "type": "address"
        }
      ],
      "stateMutability": "view",
      "type": "function",
      "constant": true
    },
    {
      "inputs": [],
      "name": "bonusTokenAddress",
      "outputs": [
        {
          "internalType": "address",
          "name": "",
          "type": "address"
        }
      ],
      "stateMutability": "view",
      "type": "function",
      "constant": true
    },
    {
      "inputs": [],
      "name": "owner",
      "outputs": [
        {
          "internalType": "address",
          "name": "",
          "type": "address"
        }
      ],
      "stateMutability": "view",
      "type": "function",
      "constant": true
    },
    {
      "inputs": [
        {
          "internalType": "address",
          "name": "_address",
          "type": "address"
        }
      ],
      "name": "setBonusTokenAddress",
      "outputs": [],
      "stateMutability": "nonpayable",
      "type": "function"
    },
    {
      "inputs": [
        {
          "internalType": "address",
          "name": "_address",
          "type": "address"
        }
      ],
      "name": "addAccounter",
      "outputs": [],
      "stateMutability": "nonpayable",
      "type": "function"
    },
    {
      "inputs": [
        {
          "internalType": "string",
          "name": "_name",
          "type": "string"
        },
        {
          "internalType": "address",
          "name": "_userAddress",
          "type": "address"
        }
      ],
      "name": "addUser",
      "outputs": [],
      "stateMutability": "nonpayable",
      "type": "function"
    },
    {
      "inputs": [
        {
          "internalType": "string",
          "name": "_brand",
          "type": "string"
        },
        {
          "internalType": "string",
          "name": "_model",
          "type": "string"
        },
        {
          "internalType": "uint256",
          "name": "_price",
          "type": "uint256"
        }
      ],
      "name": "addCar",
      "outputs": [],
      "stateMutability": "nonpayable",
      "type": "function"
    },
    {
      "inputs": [
        {
          "internalType": "uint256",
          "name": "_car_id",
          "type": "uint256"
        },
        {
          "internalType": "uint256",
          "name": "_user_id",
          "type": "uint256"
        }
      ],
      "name": "createOrder",
      "outputs": [],
      "stateMutability": "nonpayable",
      "type": "function"
    },
    {
      "inputs": [
        {
          "internalType": "address",
          "name": "_address",
          "type": "address"
        },
        {
          "internalType": "uint256",
          "name": "_price",
          "type": "uint256"
        }
      ],
      "name": "createServiceOrder",
      "outputs": [],
      "stateMutability": "nonpayable",
      "type": "function"
    },
    {
      "inputs": [
        {
          "internalType": "uint256",
          "name": "_order_id",
          "type": "uint256"
        },
        {
          "internalType": "uint256",
          "name": "_user_id",
          "type": "uint256"
        }
      ],
      "name": "checkUserTokens",
      "outputs": [],
      "stateMutability": "nonpayable",
      "type": "function"
    },
    {
      "inputs": [
        {
          "internalType": "uint256",
          "name": "_serviceOrderID",
          "type": "uint256"
        }
      ],
      "name": "payByTokens",
      "outputs": [],
      "stateMutability": "nonpayable",
      "type": "function"
    }
  ],
  "bytecode": "0x60806040523480156200001157600080fd5b5060405162001d9438038062001d948339818101604052810190620000379190620000d6565b336000806101000a81548173ffffffffffffffffffffffffffffffffffffffff021916908373ffffffffffffffffffffffffffffffffffffffff16021790555080600160006101000a81548173ffffffffffffffffffffffffffffffffffffffff021916908373ffffffffffffffffffffffffffffffffffffffff160217905550506200015b565b600081519050620000d08162000141565b92915050565b600060208284031215620000ef57620000ee6200013c565b5b6000620000ff84828501620000bf565b91505092915050565b600062000115826200011c565b9050919050565b600073ffffffffffffffffffffffffffffffffffffffff82169050919050565b600080fd5b6200014c8162000108565b81146200015857600080fd5b50565b611c29806200016b6000396000f3fe608060405234801561001057600080fd5b506004361061012c5760003560e01c80638fb326f2116100ad578063bd5c6a8911610071578063bd5c6a8914610320578063cfcdf4431461033c578063ea3e79091461035a578063f1e525fb14610378578063f40e03c2146103aa5761012c565b80638fb326f214610265578063907256ea1461029957806399b956a0146102b55780639aadee02146102e6578063a94661e3146103045761012c565b806371c2b3c2116100f457806371c2b3c2146101d55780637331d7e9146101f157806379109baa1461020f578063864a0d0a1461022b5780638da5cb5b146102475761012c565b80630212d0b91461013157806305574ee91461014d578063193a7e40146101695780632dc7e901146101875780634407f17e146101b7575b600080fd5b61014b60048036038101906101469190611519565b6103dc565b005b6101676004803603810190610162919061148e565b6105c6565b005b6101716106ea565b60405161017e9190611632565b60405180910390f35b6101a1600480360381019061019c9190611519565b610710565b6040516101ae9190611632565b60405180910390f35b6101bf610743565b6040516101cc9190611754565b60405180910390f35b6101ef60048036038101906101ea9190611546565b610749565b005b6101f96107db565b6040516102069190611754565b60405180910390f35b61022960048036038101906102249190611546565b6107e1565b005b61024560048036038101906102409190611432565b610b45565b005b61024f610c9c565b60405161025c9190611632565b60405180910390f35b61027f600480360381019061027a9190611519565b610cc0565b6040516102909594939291906117b4565b60405180910390f35b6102b360048036038101906102ae9190611398565b610d03565b005b6102cf60048036038101906102ca9190611398565b610dd5565b6040516102dd9291906116e4565b60405180910390f35b6102ee610e81565b6040516102fb9190611754565b60405180910390f35b61031e60048036038101906103199190611398565b610e87565b005b61033a600480360381019061033591906113c5565b610f59565b005b610344611096565b6040516103519190611632565b60405180910390f35b6103626110bc565b60405161036f9190611754565b60405180910390f35b610392600480360381019061038d9190611519565b6110c2565b6040516103a1939291906116ad565b60405180910390f35b6103c460048036038101906103bf9190611519565b61110c565b6040516103d39392919061176f565b60405180910390f35b6000600b600083815260200190815260200160002060010154905080600760003373ffffffffffffffffffffffffffffffffffffffff1673ffffffffffffffffffffffffffffffffffffffff16815260200190815260200160002060010154101561047c576040517f08c379a000000000000000000000000000000000000000000000000000000000815260040161047390611734565b60405180910390fd5b6000600160009054906101000a900473ffffffffffffffffffffffffffffffffffffffff1690508073ffffffffffffffffffffffffffffffffffffffff166323b872dd33600260009054906101000a900473ffffffffffffffffffffffffffffffffffffffff16670de0b6b3a7640000866104f79190611900565b6040518463ffffffff1660e01b81526004016105159392919061164d565b602060405180830381600087803b15801561052f57600080fd5b505af1158015610543573d6000803e3d6000fd5b505050506040513d601f19601f820116820180604052508101906105679190611405565b5081600760003373ffffffffffffffffffffffffffffffffffffffff1673ffffffffffffffffffffffffffffffffffffffff16815260200190815260200160002060010160008282546105ba919061195a565b92505081905550505050565b3373ffffffffffffffffffffffffffffffffffffffff1660008054906101000a900473ffffffffffffffffffffffffffffffffffffffff1673ffffffffffffffffffffffffffffffffffffffff1614610654576040517f08c379a000000000000000000000000000000000000000000000000000000000815260040161064b90611714565b60405180910390fd5b6001600460008282546106679190611879565b9250508190555082600960006004548152602001908152602001600020600101908051906020019061069a929190611246565b508160096000600454815260200190815260200160002060020190805190602001906106c7929190611246565b508060096000600454815260200190815260200160002060000181905550505050565b600260009054906101000a900473ffffffffffffffffffffffffffffffffffffffff1681565b60086020528060005260406000206000915054906101000a900473ffffffffffffffffffffffffffffffffffffffff1681565b60065481565b3373ffffffffffffffffffffffffffffffffffffffff1660008054906101000a900473ffffffffffffffffffffffffffffffffffffffff1673ffffffffffffffffffffffffffffffffffffffff16146107d7576040517f08c379a00000000000000000000000000000000000000000000000000000000081526004016107ce90611714565b60405180910390fd5b5050565b60055481565b3373ffffffffffffffffffffffffffffffffffffffff1660008054906101000a900473ffffffffffffffffffffffffffffffffffffffff1673ffffffffffffffffffffffffffffffffffffffff161461086f576040517f08c379a000000000000000000000000000000000000000000000000000000000815260040161086690611714565b60405180910390fd5b6001600560008282546108829190611879565b9250508190555080600a600060055481526020019081526020016000206000018190555081600a600060055481526020019081526020016000206001018190555042600a60006005548152602001908152602001600020600201819055506001600a6000600554815260200190815260200160002060030160006101000a81548160ff02191690831515021790555060006008600083815260200190815260200160002060009054906101000a900473ffffffffffffffffffffffffffffffffffffffff169050600760008273ffffffffffffffffffffffffffffffffffffffff1673ffffffffffffffffffffffffffffffffffffffff16815260200190815260200160002060020160055490806001815401808255809150506001900390600052602060002001600090919091909150556000606460096000868152602001908152602001600020600001546109d991906118cf565b905080600a600060055481526020019081526020016000206004018190555080600760008473ffffffffffffffffffffffffffffffffffffffff1673ffffffffffffffffffffffffffffffffffffffff168152602001908152602001600020600101819055506000600160009054906101000a900473ffffffffffffffffffffffffffffffffffffffff1690508073ffffffffffffffffffffffffffffffffffffffff166340c10f1984670de0b6b3a764000085610a979190611900565b6040518363ffffffff1660e01b8152600401610ab4929190611684565b602060405180830381600087803b158015610ace57600080fd5b505af1158015610ae2573d6000803e3d6000fd5b505050506040513d601f19601f82011682018060405250810190610b069190611405565b507f69779996a991d45551f764f92d74f416ae6ccbff1babfa7b555efb59cde59adf82604051610b369190611754565b60405180910390a15050505050565b3373ffffffffffffffffffffffffffffffffffffffff1660008054906101000a900473ffffffffffffffffffffffffffffffffffffffff1673ffffffffffffffffffffffffffffffffffffffff1614610bd3576040517f08c379a0000000000000000000000000000000000000000000000000000000008152600401610bca90611714565b60405180910390fd5b600160036000828254610be69190611879565b9250508190555081600760008373ffffffffffffffffffffffffffffffffffffffff1673ffffffffffffffffffffffffffffffffffffffff1681526020019081526020016000206000019080519060200190610c43929190611246565b508060086000600354815260200190815260200160002060006101000a81548173ffffffffffffffffffffffffffffffffffffffff021916908373ffffffffffffffffffffffffffffffffffffffff1602179055505050565b60008054906101000a900473ffffffffffffffffffffffffffffffffffffffff1681565b600a6020528060005260406000206000915090508060000154908060010154908060020154908060030160009054906101000a900460ff16908060040154905085565b3373ffffffffffffffffffffffffffffffffffffffff1660008054906101000a900473ffffffffffffffffffffffffffffffffffffffff1673ffffffffffffffffffffffffffffffffffffffff1614610d91576040517f08c379a0000000000000000000000000000000000000000000000000000000008152600401610d8890611714565b60405180910390fd5b80600260006101000a81548173ffffffffffffffffffffffffffffffffffffffff021916908373ffffffffffffffffffffffffffffffffffffffff16021790555050565b6007602052806000526040600020600091509050806000018054610df890611a18565b80601f0160208091040260200160405190810160405280929190818152602001828054610e2490611a18565b8015610e715780601f10610e4657610100808354040283529160200191610e71565b820191906000526020600020905b815481529060010190602001808311610e5457829003601f168201915b5050505050908060010154905082565b60035481565b3373ffffffffffffffffffffffffffffffffffffffff1660008054906101000a900473ffffffffffffffffffffffffffffffffffffffff1673ffffffffffffffffffffffffffffffffffffffff1614610f15576040517f08c379a0000000000000000000000000000000000000000000000000000000008152600401610f0c90611714565b60405180910390fd5b80600160006101000a81548173ffffffffffffffffffffffffffffffffffffffff021916908373ffffffffffffffffffffffffffffffffffffffff16021790555050565b3373ffffffffffffffffffffffffffffffffffffffff1660008054906101000a900473ffffffffffffffffffffffffffffffffffffffff1673ffffffffffffffffffffffffffffffffffffffff1614610fe7576040517f08c379a0000000000000000000000000000000000000000000000000000000008152600401610fde90611714565b60405180910390fd5b600160066000828254610ffa9190611879565b9250508190555081600b6000600654815260200190815260200160002060000160006101000a81548173ffffffffffffffffffffffffffffffffffffffff021916908373ffffffffffffffffffffffffffffffffffffffff16021790555080600b600060065481526020019081526020016000206001018190555042600b60006006548152602001908152602001600020600201819055505050565b600160009054906101000a900473ffffffffffffffffffffffffffffffffffffffff1681565b60045481565b600b6020528060005260406000206000915090508060000160009054906101000a900473ffffffffffffffffffffffffffffffffffffffff16908060010154908060020154905083565b600960205280600052604060002060009150905080600001549080600101805461113590611a18565b80601f016020809104026020016040519081016040528092919081815260200182805461116190611a18565b80156111ae5780601f10611183576101008083540402835291602001916111ae565b820191906000526020600020905b81548152906001019060200180831161119157829003601f168201915b5050505050908060020180546111c390611a18565b80601f01602080910402602001604051908101604052809291908181526020018280546111ef90611a18565b801561123c5780601f106112115761010080835404028352916020019161123c565b820191906000526020600020905b81548152906001019060200180831161121f57829003601f168201915b5050505050905083565b82805461125290611a18565b90600052602060002090601f01602090048101928261127457600085556112bb565b82601f1061128d57805160ff19168380011785556112bb565b828001600101855582156112bb579182015b828111156112ba57825182559160200191906001019061129f565b5b5090506112c891906112cc565b5090565b5b808211156112e55760008160009055506001016112cd565b5090565b60006112fc6112f78461182c565b611807565b90508281526020810184848401111561131857611317611b3c565b5b6113238482856119d6565b509392505050565b60008135905061133a81611bae565b92915050565b60008151905061134f81611bc5565b92915050565b600082601f83011261136a57611369611b37565b5b813561137a8482602086016112e9565b91505092915050565b60008135905061139281611bdc565b92915050565b6000602082840312156113ae576113ad611b46565b5b60006113bc8482850161132b565b91505092915050565b600080604083850312156113dc576113db611b46565b5b60006113ea8582860161132b565b92505060206113fb85828601611383565b9150509250929050565b60006020828403121561141b5761141a611b46565b5b600061142984828501611340565b91505092915050565b6000806040838503121561144957611448611b46565b5b600083013567ffffffffffffffff81111561146757611466611b41565b5b61147385828601611355565b92505060206114848582860161132b565b9150509250929050565b6000806000606084860312156114a7576114a6611b46565b5b600084013567ffffffffffffffff8111156114c5576114c4611b41565b5b6114d186828701611355565b935050602084013567ffffffffffffffff8111156114f2576114f1611b41565b5b6114fe86828701611355565b925050604061150f86828701611383565b9150509250925092565b60006020828403121561152f5761152e611b46565b5b600061153d84828501611383565b91505092915050565b6000806040838503121561155d5761155c611b46565b5b600061156b85828601611383565b925050602061157c85828601611383565b9150509250929050565b61158f8161198e565b82525050565b61159e816119a0565b82525050565b60006115af8261185d565b6115b98185611868565b93506115c98185602086016119e5565b6115d281611b4b565b840191505092915050565b60006115ea601683611868565b91506115f582611b5c565b602082019050919050565b600061160d601283611868565b915061161882611b85565b602082019050919050565b61162c816119cc565b82525050565b60006020820190506116476000830184611586565b92915050565b60006060820190506116626000830186611586565b61166f6020830185611586565b61167c6040830184611623565b949350505050565b60006040820190506116996000830185611586565b6116a66020830184611623565b9392505050565b60006060820190506116c26000830186611586565b6116cf6020830185611623565b6116dc6040830184611623565b949350505050565b600060408201905081810360008301526116fe81856115a4565b905061170d6020830184611623565b9392505050565b6000602082019050818103600083015261172d816115dd565b9050919050565b6000602082019050818103600083015261174d81611600565b9050919050565b60006020820190506117696000830184611623565b92915050565b60006060820190506117846000830186611623565b818103602083015261179681856115a4565b905081810360408301526117aa81846115a4565b9050949350505050565b600060a0820190506117c96000830188611623565b6117d66020830187611623565b6117e36040830186611623565b6117f06060830185611595565b6117fd6080830184611623565b9695505050505050565b6000611811611822565b905061181d8282611a4a565b919050565b6000604051905090565b600067ffffffffffffffff82111561184757611846611b08565b5b61185082611b4b565b9050602081019050919050565b600081519050919050565b600082825260208201905092915050565b6000611884826119cc565b915061188f836119cc565b9250827fffffffffffffffffffffffffffffffffffffffffffffffffffffffffffffffff038211156118c4576118c3611a7b565b5b828201905092915050565b60006118da826119cc565b91506118e5836119cc565b9250826118f5576118f4611aaa565b5b828204905092915050565b600061190b826119cc565b9150611916836119cc565b9250817fffffffffffffffffffffffffffffffffffffffffffffffffffffffffffffffff048311821515161561194f5761194e611a7b565b5b828202905092915050565b6000611965826119cc565b9150611970836119cc565b92508282101561198357611982611a7b565b5b828203905092915050565b6000611999826119ac565b9050919050565b60008115159050919050565b600073ffffffffffffffffffffffffffffffffffffffff82169050919050565b6000819050919050565b82818337600083830152505050565b60005b83811015611a035780820151818401526020810190506119e8565b83811115611a12576000848401525b50505050565b60006002820490506001821680611a3057607f821691505b60208210811415611a4457611a43611ad9565b5b50919050565b611a5382611b4b565b810181811067ffffffffffffffff82111715611a7257611a71611b08565b5b80604052505050565b7f4e487b7100000000000000000000000000000000000000000000000000000000600052601160045260246000fd5b7f4e487b7100000000000000000000000000000000000000000000000000000000600052601260045260246000fd5b7f4e487b7100000000000000000000000000000000000000000000000000000000600052602260045260246000fd5b7f4e487b7100000000000000000000000000000000000000000000000000000000600052604160045260246000fd5b600080fd5b600080fd5b600080fd5b600080fd5b6000601f19601f8301169050919050565b7f4f6e6c79206f776e65722063616e20646f207468697300000000000000000000600082015250565b7f4e6f7420656e6f7567687420746f6b656e730000000000000000000000000000600082015250565b611bb78161198e565b8114611bc257600080fd5b50565b611bce816119a0565b8114611bd957600080fd5b50565b611be5816119cc565b8114611bf057600080fd5b5056fea2646970667358221220d1ccdeae836b856bf60b4798628c3845af85e90a7b15eb004cc59773c69fa7d964736f6c63430008060033",
  "immutableReferences": {},
  "source": "// SPDX-License-Identifier: MIT\npragma solidity ^0.8.5;\n\nimport \"./IERC20.sol\";\n\ncontract BuyCars {\n    address public owner;\n    address public bonusTokenAddress;\n    address public accounter;\n\n    event createOrderEvent(uint256 _tokens);\n\n    constructor(address _bonusTokenAddress) {\n        owner = msg.sender;\n        bonusTokenAddress = _bonusTokenAddress;\n    }\n\n    modifier onlyOwner() {\n        require(owner == msg.sender, \"Only owner can do this\");\n        _;\n    }\n\n    uint256 public UserID;\n    uint256 public CarID;\n    uint256 public OrderID;\n    uint256 public ServiceOrderID;\n\n    struct car {\n        uint256 price;\n        string brand;\n        string model;\n    }\n\n    struct order {\n        uint256 userID;\n        uint256 carID;\n        uint256 date;\n        bool active;\n        uint256 tokens;\n    }\n\n    struct serviceOrder {\n        address userAddress;\n        uint price;\n        uint date;\n    }\n\n    struct user {\n        string name;\n        uint256 tokens;\n        uint256[] orders;\n    }\n\n    mapping(address => user) public Users;\n    mapping(uint256 => address) public UserIDs;\n    mapping(uint256 => car) public Cars;\n    mapping(uint256 => order) public Orders;\n    mapping(uint => serviceOrder) public ServiceOrders;\n\n    //FUNCTIONS\n\n    //Function for adding users to smart contract\n\n    function setBonusTokenAddress(address _address) public onlyOwner {\n        bonusTokenAddress = _address;\n    }\n\n    function addAccounter(address _address) public onlyOwner {\n        accounter = _address;\n    }\n\n    function addUser(string memory _name, address _userAddress)\n        public\n        onlyOwner\n    {\n        UserID += 1;\n        Users[_userAddress].name = _name;\n        UserIDs[UserID] = _userAddress;\n    }\n\n    function addCar(\n        string memory _brand,\n        string memory _model,\n        uint256 _price\n    ) public onlyOwner {\n        CarID += 1;\n        Cars[CarID].brand = _brand;\n        Cars[CarID].model = _model;\n        Cars[CarID].price = _price;\n    }\n\n    function createOrder(uint256 _car_id, uint256 _user_id) public onlyOwner {\n        OrderID += 1;\n        Orders[OrderID].userID = _user_id;\n        Orders[OrderID].carID = _car_id;\n        Orders[OrderID].date = block.timestamp;\n        Orders[OrderID].active = true;\n        address _user_address = UserIDs[_user_id];\n        Users[_user_address].orders.push(OrderID);\n        uint256 _tokens = Cars[_car_id].price / 100;\n        Orders[OrderID].tokens = _tokens;\n        Users[_user_address].tokens = _tokens;\n        IERC20 _bonusToken = IERC20(bonusTokenAddress);\n        _bonusToken.mint(_user_address, _tokens * 10**18);\n        emit createOrderEvent(_tokens);\n    }\n\n    function createServiceOrder(address _address, uint _price) public onlyOwner {\n        ServiceOrderID += 1;\n        ServiceOrders[ServiceOrderID].userAddress = _address;\n        ServiceOrders[ServiceOrderID].price = _price;\n        ServiceOrders[ServiceOrderID].date = block.timestamp;\n    }\n\n    function checkUserTokens(uint256 _order_id, uint256 _user_id)\n        public\n        onlyOwner\n    {}\n\n    // /\n\n    // function payByTokens(uint256 _order_id) public {\n    //     uint256 _amount = Orders[_order_id].tokens; //        \n    //     require(Users[msg.sender].tokens >= _amount, \"Not enought tokens\"); //      \n\n    //     IERC20 _bon_token = IERC20(bonusTokenAddress); //\n    //     _bon_token.transferFrom(msg.sender, address(this), _amount * 10**18); //       \n    //     _bon_token.burn(address(this), _amount * 10**18); //  \n    //     Users[msg.sender].tokens -= _amount; //     \n    // }\n\n    function payByTokens(uint _serviceOrderID) public {\n        uint _serviceAmount = ServiceOrders[_serviceOrderID].price;\n        require(Users[msg.sender].tokens >= _serviceAmount, \"Not enought tokens\"); //      \n\n        IERC20 _bon_token = IERC20(bonusTokenAddress); //\n        _bon_token.transferFrom(msg.sender, accounter, _serviceAmount * 10**18); //      accounter\n\n        //_bon_token.transferFrom(msg.sender, address(this), _serviceAmount * 10**18); //       \n        //_bon_token.burn(address(this), _serviceAmount * 10**18); //  \n\n        Users[msg.sender].tokens -= _serviceAmount; //     \n    }\n\n    //10.07\n    // https://github.com/OpenZeppelin/openzeppelin-contracts/blob/master/contracts/token/\n    //           json    \n    //    \n}\n",
  "sourcePath": "/Volumes/Disk D/My Documents/iOS Development/Bitbucket/SOLIDITY/BuyCar/contracts/BuyCars.sol",
  "compiler": {
    "name": "solc",
    "version": "0.8.6+commit.11564f7e.Emscripten.clang"
  },
  "schemaVersion": "3.4.1",
  "updatedAt": "2021-07-17T11:06:10.654Z",
  "networkType": "ethereum",
  "devdoc": {
    "kind": "dev",
    "methods": {},
    "version": 1
  },
  "userdoc": {
    "kind": "user",
    "methods": {},
    "version": 1
  }
}